:020000040000FA
:100000000C947B050C94AC050C94AC050C94AC05DD
:100010000C94AC050C94AC050C94AC050C94AC059C
:100020000C94AC050C94AC050C94AC050C94AC058C
:100030000C94AC050C94AC050C94AC050C94AC057C
:100040000C94AC050C94AC050C94AC050C94AC056C
:100050000C94CC3B0C94AC050C94AC050C94662829
:100060000C94AC050C94AC050C94AC050C94AC054C
:100070000C94AC050C94AC050C94AC050C94AC053C
:100080000C94AC050C94AC050C94AC050C94AC052C
:100090000C94AC050C94AC050C94AC050C94AC051C
:1000A0000C94AC050C94AC050C94AC050C94AC050C
:1000B0000C94AC050C94AC050C94AC050C94AC05FC
:1000C0000C94AC050C94AC050C94AC050C94AC05EC
:1000D0000C94AC050C94AC050C94AC050C94AC05DC
:1000E0000C94AC050C9451060C943A060C94CC3646
:1000F0000C9415360C9430060C94FC2D0C9483064D
:100100000C94E1360C9426060C94112C0C943E06AB
:100110000C94142C0C9485360C943D2C0C94C935FD
:100120000C9423060C9436060C9444060C941D374C
:100130000C94202D0C94E9350C941B060C949635E8
:100140000C941A2C0C9452060C949E060C945C2C65
:100150000C9411060C942C060C9495060C94F93B07
:100160000C9417060C9456060C947F2C0C948C0659
:100170000C9448060C94A7060C944C060C941F068D
:100180000C94A8360C940C2E0C945E12536B697070
:1001900020424C4B3A3241203F00545358437A7826
:1001A000705545465357203F004D6F746F72204382
:1001B00074726C203F004261756420526174652046
:1001C0003F0056657273696F6E20332E3000000059
:1001D00000000000000000005F00000000000000C0
:1001E00007000700000000147F147F1400000024A3
:1001F0002A7F2A12000000231308646200000036E0
:100200004955225000000000050300000000001CBA
:100210002241000000000041221C000000000008F4
:100220002A1C2A0800000008083E0808000000A058
:1002300060000000000000080808080800000060D6
:100240006000000000000020100804020000003ED2
:100250005149453E00000000427F4000000000621E
:100260005149494600000022414949360000001822
:1002700014127F1000000027454545390000003C5E
:100280004A494930000000017109050300000036A9
:1002900049494936000000064949291E000000006E
:1002A0003636000000000000AC6C000000000008C2
:1002B0001422410000000014141414140000004122
:1002C000221408000000000201510906000000325B
:1002D0004979413E0000007E0909097E0000007F47
:1002E000494949360000003E414141220000007F5B
:1002F0004141221C0000007F494949410000007F24
:10030000090909010000003E414151720000007FCF
:100310000808087F000000417F4100000000002025
:1003200040413F010000007F081422410000007F8F
:10033000404040400000007F020C027F0000007F30
:100340000408107F0000003E4141413E0000007F54
:10035000090909060000003E4151215E0000007FAE
:1003600009192946000000264949493200000001C8
:10037000017F01010000003F4040403F0000001F9E
:100380002040201F0000003F4038403F0000006335
:1003900014081463000000030478040300000061E3
:1003A000514945430000007F414100000000000228
:1003B0000408102000000041417F000000000004FC
:1003C00002010204000000808080808000000001A3
:1003D0000204000000000020545454780000007F04
:1003E00048444438000000384444280000000038E5
:1003F0004444487F0000003854545418000000085A
:100400007E09020000000018A4A4A47C0000007F64
:1004100008040478000000007D0000000000008057
:10042000847D00000000007F10284400000000418F
:100430007F4000000000007C041804780000007C6D
:1004400008047C000000003844443800000000FC30
:1004500024241800000000182424FC0000000000E0
:100460007C080400000000485454240000000004EC
:100470007F4400000000003C40407C000000001C65
:100480002040201C0000003C4030403C0000004464
:10049000281028440000001CA0A07C00000000449C
:1004A00064544C4400000008364100000000000085
:1004B0007F0000000000004136080000000000023C
:1004C00001010201000000020505020000004E6F5C
:1004D000742056616C69642046696C65005A5854F2
:1004E000617065210000035A584159454D554C2013
:1004F000201A0B00C000806E5545462046696C6589
:1005000021545A584455494E4F9D504155534544E6
:100510002A2000206279746573004D656761447517
:10052000696E6F20332E30005B454D5054595D008D
:1005300053746F707065640020003031323334358D
:10054000363738394142434445464F4E202A004F02
:100550004646202A00000020002300260029002C07
:10056000002F003200000100000301060109010014
:10057000000A0B02090C0D0E08070304010000001D
:10058000000000000000000000000000000000006B
:100590000000000000000000000000121110000028
:1005A000000000000000000000000000000000004B
:1005B0000000000000000000000000F8F8F838F823
:1005C000E0000000E0F838F8F8F800000000000053
:1005D000808080800000000000000000808080801B
:1005E000008080800000000080808080808000008B
:1005F000000000F8F8F8383838383878F0F0E08043
:100600000000808080000000000080808000009852
:10061000989800000080808000008080808000002A
:10062000000000008080808080808000000000004A
:100630000000000000000000000000FFFFFF0007B6
:10064000FFFEE0FEFF0700FFFFFF0000007CFFFF52
:100650009B19199BDFDF5C00007CFFFF8301010118
:1006600083FFFFFF0000E2F3F919190D8DFFFFFF73
:10067000000000FFFFFF8080808080C0E0FFFF3F20
:100680000000FFFFFF8000000080FFFFFF0000FF71
:10069000FFFF000000FFFFFF0301010103FFFFFE5A
:1006A0000000FCFFFF8301010183FFFFFE0000004B
:1006B0000000000000000000000000030303000031
:1006C0000003030300000003030300000000010116
:1006D00003030303010100000018193B33333333D4
:1006E000393F1F0F0000000103030303010103034F
:1006F00002000003030303030303030301010000DB
:1007000000000001030303030301030303000003CC
:1007100003030000000303030000000000030303C1
:1007200000000001010303030303030100000000B4
:100730000000000000000000000000000000E010C9
:100740006020202020206010E00000000000000059
:1007500000FCFC04040CF8F0000000ECEC00C0E02D
:100760002040E0E00000ECEC0020F0F82000402009
:10077000A0A0E0C00000FCFC00000000040404FC99
:10078000FC0404044020A0A0E0C000E0E04020E021
:10079000C00000C0E02020E0C00000000000000019
:1007A00000000000004060603050E0D0A0408000B9
:1007B00000000000000000000000000000405F207A
:1007C00080397A50527938401F0000000000000044
:1007D000000F0F08080C07030000000F0F00274F41
:1007E00048447F3F00000F0F0000070F0800060F6E
:1007F00009080F0F00000F0F000000000000000F9D
:100800000F000000060F09080F0F007F7F04080F7C
:10081000070000070F09090D050000000000000097
:100820000C12224181196971091902C285840B9643
:100830006000000000000000C0300C3E7F77A39BEA
:100840007EFFF7F2E6F2778BD7BE1C0000000000B7
:100850000000000000000000000000000000000098
:10086000F8F8181818F8F0000000F8F80080C0C078
:10087000C0C08000C0C0000000C0C000000080C038
:10088000C0C0800000C0C080C0C0000000000000E8
:100890000000000000000000000000000000C0E0B8
:1008A00070742E1F0FB3BEBE7E7F7FBFB7CF1FDF1A
:1008B000EEF4100000000000FF0000804081418441
:1008C000FE7C0020C4FCBEC0A0409FA040000000F1
:1008D0000000000000000000000000000000000018
:1008E0003F3F03030303010000003F3F00183C3675
:1008F000321F3F20000FFFF07F0F0000000F1F3658
:1009000036363717003F3F010000000000000000AE
:1009100000000000000000000000000000000000D7
:1009200000000000C0C187D7606F6F87B7B4C303F2
:1009300001000000000000000102040502000001A7
:100940000103030300000101030300000000000095
:100950000000000000000000000000000000000097
:100960000000000000000000000000000000000087
:100970000000000000010101000000000000000074
:100980000000000000000000000000000000000067
:100990000000000000000000000000000000000057
:1009A000000000000101010003060602030101002E
:1009B000000000000052657365742E2E2E001FA6E5
:1009C000DEBACC137D74202A00B00460094E0C10EE
:1009D0000E0A0F5F56455253494F4E00C201B601F1
:1009E000A9019A018C014D656E7500636474006302
:1009F000617300756566006179006F007000746155
:100A00007000506C6179696E6700506C6179696E35
:100A1000672000504155534544200000506C6179D7
:100A2000696E672020202020200050617573656466
:100A300020200000002200250028002B002E00317D
:100A400000340002010000050108010B0100002133
:100A500000240027002A002D00300033000101008F
:100A600000040107010A0105050505070508080836
:100A700008020202020A0A0808040404040101012F
:100A80000101010101030303030303030304070737
:100A9000070C0C0C0C0C0C0C0C02020202060606D5
:100AA00006060606060B0B0B0B0B0B0B0B010210BD
:100AB0002020080810204010204080020102010878
:100AC0000402010102040810204080804020100828
:100AD0000402018004020180402010080402010881
:100AE00004020101020408102040800102040810E1
:100AF00020408000F93B11241FBECFEFD1E2DEBFC2
:100B0000CDBF00E00CBF12E0A0E0B2E0E6E0F2E909
:100B100000E00BBF02C007900D92A63CB107D9F7C9
:100B200029E0A6ECB2E001C01D92A231B207E1F7C4
:100B300015E0CBE7D5E000E006C021970109802F42
:100B4000FE010E947348CA37D10780E00807A9F761
:100B50000E943C3C0C9401490C940000653048F420
:100B600070E0660F771F680F791FFB01818192810A
:100B700008956B3050F46550770B660F771F680F40
:100B8000791FFB018685978508956D3051F06B5074
:100B9000770B660F771F680F791FFB01848D958D8A
:100BA000089590E080E0089590E0FC01E355F54F52
:100BB00024918959954FFC018491882399F090E004
:100BC000880F991FFC01E35BF54FA591B491FC01DF
:100BD000ED5CF54F859194918FB7F894EC91E22BF1
:100BE000EC938FBF08958150823108F05AC0E82FEE
:100BF000F0E08827E150FA4F8F4F0C9473481F069E
:100C00002306110617061B06510626062C0630067B
:100C100036063A063E064406480651064C0652067B
:100C20005606809180008F77809380000895809190
:100C300080008F7DF9CF80918000877FF5CF84B5CC
:100C40008F7784BD089584B58F7DFBCF8091B000F0
:100C50008F778093B00008958091B0008F7DF9CF99
:100C6000809190008F7780939000089580919000FC
:100C70008F7DF9CF80919000877FF5CF8091A00084
:100C80008F778093A00008958091A0008F7DF9CF89
:100C90008091A000877FF5CF809120018F7780938E
:100CA00020010895809120018F7DF9CF809120014E
:100CB000877FF5CFCF93DF93282F30E0F901E159FB
:100CC000FA4F8491F901E355F54FD491F901E959AF
:100CD000F54FC491CC23A1F081110E94F305EC2FB4
:100CE000F0E0EE0FFF1FEB5AFA4FA591B491EC9193
:100CF000ED2381E090E009F480E0DF91CF91089549
:100D000080E090E0FACF88E30E945A0621E0892B28
:100D100009F020E0822F08958AE30E945A0621E01C
:100D2000892B09F020E0822F089589E30E945A065A
:100D300021E0892B09F020E0822F089586E30E94AC
:100D40005A0621E0892B09F020E0822F089587E3DD
:100D50000E945A0621E0892B09F020E0822F089595
:100D60001F93CF93DF93282F30E0F901E159FA4F19
:100D70008491F901E355F54FD491F901E959F54F03
:100D8000C491CC23A9F0162F81110E94F305EC2FFA
:100D9000F0E0EE0FFF1FED5CF54FA591B4918FB71A
:100DA000F894EC91111108C0D095DE23DC938FBF2D
:100DB000DF91CF911F910895DE2BF8CF3FB7F894C4
:100DC0008091710490917204A0917304B0917404A5
:100DD00026B5A89B05C02F3F19F00196A11DB11D96
:100DE0003FBFBA2FA92F982F8827BC01CD01620FD2
:100DF000711D811D911D42E0660F771F881F991F8D
:100E00004A95D1F708958F929F92AF92BF92CF9259
:100E1000DF92EF92FF924B015C010E94DE066B01B4
:100E20007C010E94DE066C197D098E099F09683ECF
:100E3000734081059105A8F321E0821A9108A10869
:100E4000B10888EEC80E83E0D81EE11CF11C8114A5
:100E50009104A104B10429F7FF90EF90DF90CF90A7
:100E6000BF90AF909F908F9008952FB7F8946091A6
:100E70006D0470916E0480916F04909170042FBF87
:100E80000895CF93DF93FC01C081D1810E94350783
:100E9000C61BD70B8D2F881F8827881FDF91CF9106
:100EA00008958EBD00000DB407FEFDCF8EB50895E8
:100EB000FC01928183819CBD8DBD81E0848760E0CF
:100EC00082850E94B0068FEF0C9451078FEF0C942F
:100ED00051070F931F93CF93DF931F921F92CDB7AC
:100EE000DEB78C010E943507600F711F7A8369831A
:100EF0000E9466078F3F71F0CE0101960E94410764
:100F00008823B1F380E00F900F90DF91CF911F9174
:100F10000F91089581E0F7CFCF93DF93FC012485F3
:100F2000222349F0EC0161E082850E94B0068FEF38
:100F30000E9451071C86DF91CF9108951F93CF9394
:100F4000DF93EC0188E592E00E946907182F88235F
:100F500061F08DEF0E945107CE010E948C071D8623
:100F6000812FDF91CF911F9108958FE18B87CE0163
:100F70000E948C07F5CF0F931F93CF93DF938C01C3
:100F8000862FEA010E945107FE0181918EBDDE5F2E
:100F9000EC17FD0741F08191000000000DB407FE41
:100FA000FDCF8EBDF5CF0DB407FEFDCF8FEF0E94B4
:100FB00051078FEF0E9451070E946607F80186874C
:100FC0008F71853059F081E28387C8010E948C07B8
:100FD00080E0DF91CF911F910F91089581E0F9CFCB
:100FE000DF92EF92FF920F931F93CF93DF93EC0169
:100FF000162F022FF32EE42ED52E0E943A098823B5
:10100000C1F18C85811103C0CE010E9458071111D6
:1010100028C0812F80640E9451078D2D0E945107A6
:101020008E2D0E9451078F2D0E945107802F0E9404
:10103000510787E8111101C085E90E9451070E94FC
:1010400066071AE00E9466078E8787FF02C011506C
:10105000C9F7DF91CF911F910F91FF90EF90DF9033
:1010600008951C30B1F28CE291E00E946907811171
:10107000D0CF8FEFEECFCF92DF92EF92FF920F9310
:101080001F93CF93DF93EC016A017B01890188856F
:10109000882309F45FC08D85823049F48C819D815D
:1010A000AE81BF81C816D906EA06FB0659F18F85C5
:1010B000A7019601833039F099E0220F331F441FB6
:1010C000551F9A95D1F769E1CE010E94F007882358
:1010D00099F08EE08B87CE010E948C07CE010E9492
:1010E0008C07F12C8F2DDF91CF911F910F91FF90E5
:1010F000EF90DF90CF90089582E08D87CC82DD82E3
:10110000EE82FF8288E592E00E946907811102C0A9
:1011100085E2E0CFA8016CEFCE010E94BB078823D7
:10112000D1F28C819D81AE81BF810196A11DB11D3F
:101130008C839D83AE83BF83F884F110D3CFCE011F
:10114000DF91CF911F910F91FF90EF90DF90CF90A3
:101150000C949E078F85833039F089E0CC0CDD1C20
:10116000EE1CFF1C8A95D1F7A701960168E1CE011C
:101170000E94F007882319F08DE08B87AFCFA8017C
:101180006EEFCE010E94BB07882309F4A7CF88E544
:1011900092E00E946907F82E84E2FF2071F320E0BC
:1011A00030E0A9016DE0CE010E94F007882311F024
:1011B0008AE0E3CF0E9466078111FACFCE010E9438
:1011C0008C0790CFEF92FF921F93CF93DF93FC0198
:1011D000208111E020FF12C0EC017C01FBE0EF0E4A
:1011E000F11C4B815C816D817E81970189819A819F
:1011F0000E943B08182F811108C010E0812FDF9159
:10120000CF911F91FF90EF900895888181FD04C0D8
:1012100088818E7F8883F2CF4B815C816D817E8156
:101220008F819885A985BA85480F591F6A1F7B1F32
:10123000970189819A810E943B088111E9CFDDCF16
:10124000CF93DF93EC011D8620E030E0A9016CE034
:101250000E94F007882349F089E08B87CE010E9425
:101260008C0780E0DF91CF910895CE010E948C071A
:1012700081E0F8CFFC012585223011F40C949E0703
:10128000213011F40C94200981E008958F929F92EF
:10129000AF92BF92CF92DF92EF92FF920F931F9384
:1012A000CF93DF931F921F92CDB7DEB77C014A0127
:1012B0005B016901FC018585813049F48481958158
:1012C000A681B78188159905AA05BB0581F1F701AB
:1012D0008785A5019401833039F089E0220F331FFF
:1012E000441F551F8A95D1F762E1C7010E94F0079C
:1012F0008823B1F08CE0F7018387C7010E948C0737
:1013000080E00F900F90DF91CF911F910F91FF9090
:10131000EF90DF90CF90BF90AF909F908F90089507
:1013200081E0F701858784829582A682B782F1E009
:10133000CF1AFEEFDF0AB12CA12C99249A94A016A3
:10134000B10609F43AC00E943507645D7E4F7A8386
:1013500069830E946607F70186878F3F41F4CE01BB
:1013600001960E9441078823A1F38EE1C4CF8E3FEE
:1013700011F089E1C0CF9EBCF601EF5FF140CE16BF
:10138000DF0649F0000000000DB407FEFDCF8EB56A
:101390009EBC8193F4CF0DB407FEFDCF8EB5F60150
:1013A0008083F70116860E9466070E946607FFEF9A
:1013B000AF1ABF0A8EEFD81AC2CFF7018481958188
:1013C000A681B7818A0D9B1DA11DB11D84839583C4
:1013D000A683B7838085811194CFC7010E9420091D
:1013E00090CF8F929F92AF92BF92FF920F931F93D5
:1013F000CF93DF93DC011196ED91FC91EF2B61F41B
:1014000090E080E0DF91CF911F910F91FF90BF900E
:10141000AF909F908F900895F22E4A015B01EC01EE
:101420008B819C81AD81BE8188159905AA05BB057C
:1014300061F0CE010E94E208882311F3F2FE0DC094
:1014400018828B829C82AD82BE822F2D2370F88001
:10145000F22AF882CE010B96D5CF01E010E09E0172
:10146000255F3F4FB501A40189819A810E944609F9
:101470008111E6CFC5CF2F923F924F925F926F922C
:101480007F928F929F92AF92BF92CF92DF92EF9214
:10149000FF921F93CF93DF9300D000D000D01F9214
:1014A000CDB7DEB79A87898749835A836B837C835C
:1014B0006A017B0122E0C21AD108E108F108452B3C
:1014C000462B472B41F4E985FA85E55FFD4FC08047
:1014D000D180E280F38089859A85855E9D4F9887CB
:1014E0008F83FC0180819181A281B381C816D906C6
:1014F000EA06FB0618F0C12CD12C7601D701C601F3
:1015000043E0B695A795979587954A95D1F71C0125
:10151000F1E03F2211E0C6018770992701C0110F49
:101520008A95EAF7260137014601570129853A8550
:10153000295E3D4F3E832D83ED81FE818081918127
:10154000A281B381B501A4013CE0769567955795DA
:1015500047953A95D1F7480F591F6A1F7B1F20E026
:1015600089859A850E94F109009709F472C0FC01EF
:10157000E20DF31D2081FFEF8F1A9F0AAF0ABF0A09
:10158000322F3123D1F5B501A4014419550966095B
:101590007709413051056105710589F589819A8185
:1015A000AB81BC81892B8A2B8B2B49F4A985BA8509
:1015B000A55FBD4FFD014082518262827382C301EB
:1015C000B2016E5F7F4F8F4F9F4F2A960FB6F894F0
:1015D000DEBF0FBECDBFDF91CF911F91FF90EF9087
:1015E000DF90CF90BF90AF909F908F907F906F9043
:1015F0005F904F903F902F90089524013501C814BB
:10160000D904EA04FB0449F1AF81B8854D915D919D
:101610006D917C9184169506A606B70680F4110F8D
:1016200009F0A9CF91012F5F3F4F312C212C11E000
:101630002115B2E03B0708F07FCF190198CF212C8C
:1016400022E0322E412C512C3201812C912C54015C
:10165000E9CF60E070E0CB01B8CF61E070E080E0FE
:1016600090E0B3CF8F929F92AF92BF92CF92DF92D2
:10167000EF92FF920F931F93423051056105710560
:1016800060F480E01F910F91FF90EF90DF90CF907A
:10169000BF90AF909F908F900895FC01C08CD18C2B
:1016A000E28CF38CC416D506E606F70650F3480123
:1016B00059016A018581803229F584899589A68935
:1016C000B78917E076956795579547951A95D1F79D
:1016D000480F591F6A1F7B1F23E0CF0180960E948D
:1016E000F109009771F2CC0CDD1CCC0CDD1CF1E093
:1016F000DF228C0D9D1DFC0180829182A282B3822B
:1017000081E0C0CF803109F0BCCF4489558966891A
:1017100077894D0D511D611D711D23E0CF0180960C
:101720000E94F109009709F4ACCFCC0CDD1CF1E06C
:10173000DF22C80ED91EF60111830083E1CFCF92BC
:10174000DF92EF92FF920F931F93CF93DF9342307C
:1017500051056105710550F48FEFDF91CF911F9115
:101760000F91FF90EF90DF90CF900895FC01C08C17
:10177000D18CE28CF38CC416D506E606F70660F32E
:1017800089016A01EC018581803299F58489958906
:10179000A689B789E7E07695679557954795EA95C5
:1017A000D1F7480F591F6A1F7B1F22E0CE01809698
:1017B0000E94F109009781F2CC0CDD1CCC0CDD1CE1
:1017C000F1E0DF228C0D9D1DFC0180819181A281C1
:1017D000B381488D598D6A8D7B8D481759076A07EB
:1017E0007B0730F1F80180839183A283B38381E08A
:1017F000B4CF803109F0B0CF4489558966897789A3
:101800004D0D511D611D711D22E0CF0180960E947A
:10181000F109009709F4A0CFCC0CDD1CF1E0DF2228
:10182000C80ED91EF60180819181B0E0A0E0D1CF31
:1018300080E093CFFC019C01255F3F4F80E080FB5F
:10184000879587F99191890FE217F307C1F70895FA
:101850004F925F926F927F928F929F92AF92BF92C0
:10186000CF92DF92EF92FF920F931F93CF93DF936C
:10187000EC014A015B014C845D846E847F84288185
:10188000222309F45CC0488959896A897B894815F3
:1018900059056A057B0581F081149104A104B10406
:1018A00069F41C861D861E861F86888A998AAA8AE4
:1018B000BB8A8A818F7D8A8381E046C023FF2CC04A
:1018C000888D998DAA8DBB8D88159905AA05BB05B4
:1018D000B0F1EE81FF813481375F7501640181E0F1
:1018E000C81AD108E108F108032E04C0F694E79461
:1018F000D794C7940A94D2F78A8186FF36C08C8D1C
:101900009D8DAE8DBF8D8C0D9D1DAE1DBF1D8C8719
:101910009D87AE87BF87C9CF26FFDBCFEE81FF81D2
:101920008681978125E0880F991F2A95E1F7B0E01D
:10193000A0E088159905AA05BB0508F0B6CF4C862E
:101940005D866E867F8680E0DF91CF911F910F913B
:10195000FF90EF90DF90CF90BF90AF909F908F90CF
:101960007F906F905F904F900895DB01CA010197BF
:10197000A109B10904C0B695A795979587953A95A1
:10198000D2F7C816D906EA06FB0620F0452B462BEF
:10199000472B49F527FF22C0848D958DA68DB78DE5
:1019A0008C879D87AE87BF878E01045F1F4FC11450
:1019B000D104E104F10409F478CF4C855D856E858E
:1019C0007F8598018E819F810E949F0B91E0C91AAB
:1019D000D108E108F108181654F3B1CF8C8D9D8D14
:1019E000AE8DBF8DDDCFC81AD90AEA0AFB0ADCCF5B
:1019F0000F931F93CF93DF93EC018881811108C06F
:101A000081E018821A82DF91CF911F910F91089582
:101A10008A8187FF3AC04C895D896E897F898E8172
:101A20009F8121E080960E94F109009729F4898125
:101A30008160898380E0E5CFEC81FD81EF70FF2735
:101A400025E0EE0FFF1F2A95E1F7E80FF91F309709
:101A500071F38081853E59F38881877383878881FC
:101A600083FF08C0888D998DAA8DBB8D848F958F3B
:101A7000A68FB78F8C8D9D8DAE8DBF8D938F828FEE
:101A8000B58BA48B8A818F778A830E811F81C801D1
:101A900080960E94E208882351F2F80180819181AA
:101AA0000E943A09882319F2ABCF8F929F92AF928E
:101AB000BF92CF92DF92EF92FF920F931F9342302B
:101AC00051056105710560F480E01F910F91FF9051
:101AD000EF90DF90CF90BF90AF909F908F90089540
:101AE000FC01E55EFD4FC080D180E280F380EFEF26
:101AF000CE1ADE0AEE0AFE0AC416D506E606F70678
:101B000018F3480159016A01FC01E15FFD4F37E01C
:101B100076956795579547953A95D1F7008111814C
:101B200022813381400F511F621F731F21E00E94E9
:101B3000F109009749F2CC0CDD1CCC0CDD1CF1E066
:101B4000DF22C80ED91EF60180829182A282B38262
:101B500081E0BBCFCF92DF92EF92FF920F931F9362
:101B6000CF93DF93E901FC01E55EFD4F0081118118
:101B7000228133810F5F1F4F2F4F3F4F04171507EF
:101B80002607370750F48FEFDF91CF911F910F9108
:101B9000FF90EF90DF90CF9008956A01FC01E15F24
:101BA000FD4F37E076956795579547953A95D1F76C
:101BB0000081118122813381400F511F621F731FE9
:101BC00020E00E94F1090097F1F2CC0CDD1CCC0C56
:101BD000DD1C21E0D222C80ED91EF6018081918140
:101BE000A281B3818F3FFFEF9F07AF07BF0731F09F
:101BF00088839983AA83BB8381E0C6CF80E0C4CF6A
:101C00000F931F93CF93DF93EB01E42FDC01AD5DC6
:101C1000BD4F4D915D916D917C9113970C811D810C
:101C20002E813F81402351236223732329E076953F
:101C30006795579547952A95D1F7088119812A818B
:101C40003B8102501109210931091B96FC9104C006
:101C5000000F111F221F331FFA95D2F7400F511F9B
:101C6000621F731F57970D911D912D913C91400F4D
:101C7000511F621F731F2E2F0E94F109009729F038
:101C80002C813D813170820F931FDF91CF911F9185
:101C90000F9108954F925F926F927F928F929F92D1
:101CA000AF92BF92CF92DF92EF920F931F93CF9399
:101CB000DF936C0148015901DB01CA010297A109B8
:101CC000B109AC01BD01480D591D6A1D7B1DF6010E
:101CD000E55EFD4F008111812281338104171507D4
:101CE0002607370708F47FC07097408051806280D4
:101CF0007380EE2009F46CC0481659066A067B060C
:101D000088F0441655066606770660F440175107BA
:101D10006207730718F040E050E0BA014083518336
:101D2000628373839C012770332711E001C0110F78
:101D30002A95EAF72C013D012CE07694679457949C
:101D400047942A95D1F7F601E95EFD4F4081518114
:101D500062817381440D551D661D771D33E0B69574
:101D6000A795979587953A95D1F7EC01D1702A01FF
:101D70003B012FEF421A520A620A720A21E0C601A1
:101D80000E94F109009779F1FC01EC0FFD1FA12FD2
:101D90002081422F4A2331E009F430E03E1519F149
:101DA0002A272083B1E08B1A9108A108B10861F1BC
:101DB000AA0F71F73196B301A201D0E0C0E011E0A3
:101DC000A1E09F01281B390B2115324009F7CFCF25
:101DD00084159505A605B70508F0A4CF80839183E7
:101DE000A283B3839FCF80E0DF91CF911F910F91AA
:101DF000EF90DF90CF90BF90AF909F908F907F90AB
:101E00006F905F904F90089581E0EECFCF93DF9376
:101E1000EC010E94E208882341F0C55DDD4F888116
:101E20009981DF91CF910C943A0980E0DF91CF91B5
:101E300008952F923F924F925F926F927F928F926E
:101E40009F92AF92BF92CF92DF92EF92FF920F9349
:101E50001F93CF93DF93CDB7DEB762970FB6F89499
:101E6000DEBF0FBECDBF988B8F874801222E3D83EA
:101E70004E83352E2B01DC0158962D913D914D91CD
:101E80005C915B972B873C874D875E879C96BC91C6
:101E9000BF83BB2309F4E3C0FC01F081F887DC01B8
:101EA0001196BC91B987FC01F281FA87DC01139687
:101EB0006C90139714967C9014971596BC91FC0126
:101EC000F681F98BFC01F781FA8B288539854A85E3
:101ED000562D672D7B2F89899F2F5801C22CDD80BD
:101EE000EE80F32C82010E94AD48F1F09401422D66
:101EF0005D2D6E2D732DC201A0E00E94B648B1F495
:101F0000AF85B88958961D921D921D921C925B97C1
:101F1000EF85F8898082918222822D8123833E8100
:101F2000348335824682578281E0A4C0EF81E3FF8B
:101F300010C0EF85F88920893189428953896489E5
:101F4000758986899789DD80EE800E94AD4808F406
:101F500086C0EF85F889A0A0B1A0C501825D9D4F24
:101F6000FC011081175F9401422D5D816E81732DFC
:101F7000C201AFEF0E94A148012F0E947D48942F1B
:101F8000852FA901692F782F69017B01EF85F889D9
:101F900086A586FF0DC0848D958DA68DB78D840F87
:101FA000951FA61FB71F808F918FA28FB38FB0CFC1
:101FB000288539854A85562D672D7B2F89899A89F1
:101FC000AFEF0E94A1480E947D4829833A834B834A
:101FD0005C8329813A814B815C81C216D306E40679
:101FE000F50668F0288539854A85562D672D7B2FA3
:101FF00089899A89A0E00E94B64809F05BC0BF8138
:10200000B6FF51C0F501E15EFD4F80819181A28153
:10201000B381EF85F889808F918FA28FB38F6F8402
:10202000788838E1630E711CC114D104E104F10415
:1020300009F46ECFAF85B88958964D915D916D9139
:102040007C915B97930190968D919C910E94AA0D33
:10205000B1E0CB1AD108E108F10818162CF38B85F2
:102060009C85AD85BE85EF85F889808F918FA28F85
:10207000B38F80E062960FB6F894DEBF0FBECDBF7F
:10208000DF91CF911F910F91FF90EF90DF90CF9054
:10209000BF90AF909F908F907F906F905F904F9088
:1020A0003F902F900895EF85F889848D958DA68DAA
:1020B000B78DAFCF29813A814B815C81C21AD30A97
:1020C000E40AF50AACCF9F92AF92BF92CF92DF9213
:1020D000EF92FF920F931F93CF93DF9300D000D026
:1020E00000D0CDB7DEB78C01942E89E0F801B2960E
:1020F000DE01119601900D928A95E1F7F801A0A0FA
:10210000B1A0F0E26F9FC0011124B0E0A0E04D81CA
:102110005E816F817885F501ED5DFD4FC080D180D6
:10212000E280F380C422D522E622F722C80ED91E0F
:10213000EA1EFB1E840F951FA61FB71F8D839E836B
:10214000AF83B8873B968081875F04C0F694E7949D
:10215000D794C7948A95D2F7C114D104E104F1044D
:1021600089F149815A816B817C818985882371F04D
:102170004F5F5F4F6F4F7F4F49835A836B837C83E1
:1021800021E0C21AD108E108F108E6CF9E012F5FD5
:102190003F4FC5010E94AA0D813091F390E080E08D
:1021A00029960FB6F894DEBF0FBECDBFDF91CF9159
:1021B0001F910F91FF90EF90DF90CF90BF90AF9065
:1021C0009F900895492DBE016F5F7F4FF80180A158
:1021D00091A10E94000EE4CFFF920F931F93CF9323
:1021E000DF93FC0124A5211107C081E0DF91CF918D
:1021F0001F910F91FF900895EC0186A587FF8AC07B
:102200008F7786A7F12C10E000E08BA58F1508F4DE
:1022100069C040E06F2DCE010E946310FC01892B44
:1022200009F473C08081803C61F1813C69F085389C
:1022300009F06BC08CA5877390E095838483A8A177
:10224000B9A18C9181608C93408190E080E000FB8B
:102250001795079517F9DF01A80FB91F2C91020FE9
:10226000111D8130910521F423E030E0453811F053
:1022700021E030E0820F931F8032910540F3F39408
:10228000C4CF81819EA596FF2BC08260818378890F
:1022900069895A894B893C892D899E898F897087E4
:1022A00061875287438734872587968787878C8DF8
:1022B0009D8DAE8DBF8D848B958BA68BB78B7885CE
:1022C00069855A854B853C852D859E858F85708FC8
:1022D000618F528F438F348F258F968F878FAFCF2B
:1022E0008D7FD4CF41E0BE016E5D7F4F88A199A163
:1022F0000E94000E009749F0FC011383028388A11D
:1023000099A10E94060F811170CF8DA581608DA7C4
:1023100080E06CCF80A191A10E94060F811165CF52
:102320009DA591609DA762CF0F931F93CF93DF93DD
:10233000EC0188A999A9009759F00E94F80C19AAF4
:1023400018AA1BAA1AAADF91CF911F910F91089585
:102350000AA91BA981E00115110589F3C8010E9492
:10236000EC10F80114A616A6EACF982F803290F050
:10237000877F823279F09A3369F0892F8F7B8C3393
:1023800049F082EC890F823028F081E09C3519F009
:1023900080E0089581E00895AF92BF92CF92DF92DE
:1023A000EF92FF920F931F93CF93DF93EC016A019B
:1023B0007B0159018B819C81AD81BE818C159D056E
:1023C000AE05BF0590F49501B701A60189819A81F8
:1023D0000E944609DF91CF911F910F91FF90EF90DE
:1023E000DF90CF90BF90AF900895400F511F611DB7
:1023F000711D84179507A607B70728F7CE010E941D
:10240000E2088111E0CFE6CF80EA90E090930B02E2
:1024100080930A0220910C0230910D02203B84E04F
:10242000380731F088E790E090930B0280930A021E
:1024300080917704813091F4203B344061F482EA4A
:1024400095E090930B0280930A028091770481506B
:1024500080937704089584EF91E0F3CF8111F5CF55
:1024600080917C0493E187FF99E090937704880F33
:1024700080937C048091D10481508093D104109288
:102480000B0210920A02E1CF80915C0490915D04EE
:102490009C012150310930935D0420935C04892B09
:1024A00021F486E080931202089580915A0490915D
:1024B0005B0490930B0280930A0208950F931F937D
:1024C000E0910602F091070240915904242F30E078
:1024D000D9011196AE0FBF1F8C912E0F3F1FD9014E
:1024E0006C919091CC04911104C1762F682F9B01BF
:1024F00077FF4AC075FF0FC07F7590E080E01092B3
:1025000076041198209159042E5F203B08F0DBC01F
:102510002093590487C03F7781E0809358048091CD
:1025200057048111B2C081E04091760491E04111DD
:1025300090E090937604909176049111ADC011983B
:1025400090915804992309F4B3C0882309F4A6C0D4
:10255000909159048091860480937604215031092A
:102560004091060250910702892F90E0FA01E80F8E
:10257000F91F30830196840F951FDC012C936CEDBD
:1025800075E080E090E04EC076FF7DC075FF23C00F
:102590007F71CB01B0E0A0E080935304909354048A
:1025A000A0935504B09356044E5F403B08F055C0CD
:1025B000409359048091060290910702409159047A
:1025C00050E0FA013196E80FF91F2081840F951F22
:1025D000FC018081382F60915304709154048091E4
:1025E00055049091560427FF4AC041E04093760479
:1025F000119AA90144275770452B09F483CFE09124
:102600000602F091070250915904452F50E0DF0176
:10261000A40FB51F31503C934F5F5F4FE40FF51F80
:10262000220F20838B019C0153E0000F111F221FFA
:10263000331F5A95D1F701151105B1E02B0731056C
:1026400008F05CC081E010938700009386008061F1
:10265000809381001F910F910895109259048091E9
:102660000802909109029093070280930602F0936A
:102670000902E093080281E0809382049BCF1092CC
:1026800076041198B6CF672BC9F08091580488233F
:1026900009F44ACF80E04FCF119A52CFA8EEB3E0B1
:1026A0000E9444481092580421E0209357042ACFF6
:1026B00010925704B90190E080E024CF68EE73E0F7
:1026C00080E090E01FCF10925904209106023091D3
:1026D000070240910802509109025093070240936B
:1026E0000602309309022093080221E0209382041D
:1026F00099CF60E573EC80E090E094CF011511056F
:10270000E8E02E07310528F48B019C013F7182E03F
:102710009ACF01151105F0E42F07310548F446E082
:1027200036952795179507954A95D1F783E08BCF76
:1027300001151105210541E0340730F4012F122F56
:10274000232F332784E07FCF01151105210584E075
:10275000380748F48AE036952795179507958A95A6
:10276000D1F785E070CF85E00FEF1FEF6CCF1092AF
:10277000760411981092570410925804089580918D
:102780000C0290910D028E342CE0920721F158F446
:10279000803B24E0920799F080369940B9F080E1BF
:1027A00080938100089580312EE09207C9F08A302D
:1027B0009F40A9F782E08093780481E404C081E01F
:1027C0008093780480ED8093B304E9CF81E0809317
:1027D000780488E6F8CF81E08093780480E5F3CF31
:1027E00082E08093780486E4EECF2091C1042093A8
:1027F000D10490E02B3019F4880F991F9A5F9093C1
:102800007A048093790408950E94A70681110EC06E
:102810000E949E0681110AC00E948306811106C093
:102820000E949506811102C010920E0262E370E0D0
:1028300080E090E00C9403070F931F93CF938C01DB
:10284000C4E0F8011995882341F062E370E080E06C
:1028500090E00E940307C150A1F7CF911F910F9103
:102860000895CF93DF93EC01FE011995882339F089
:1028700062E370E080E090E00E940307F5CFDF9113
:10288000CF910895F89490E080E0FC01ED50FD4F69
:102890001082E055FF4F10820196803B9105A9F709
:1028A0007894089540E050E0BA010C94280C0F93FE
:1028B0001F93CF93DF93EC0188A999A9009711F09A
:1028C0000E9452148AA99BA9009751F000E010E0E1
:1028D00020E030E040E050E060E070E00E94190F3E
:1028E000DF91CF911F910F910895B0E0A0E0BC015E
:1028F000CD0122E0660F771F881F991F2A95D1F717
:10290000695F7F4F8F4F9F4F959587957795679517
:1029100027E030E040E050E00E94F847C901089508
:102920000E9435076854744F8F4F9F4F6093FC058A
:102930007093FD058093FE059093FF051092FB04B4
:102940000895CF92DF92EF92FF920F931F93CF9350
:10295000DF93FC0180E2DF011D928A95E9F7DB013C
:102960001696CD91DC911797D783C6835583448300
:102970005C96CD90DD90ED90FC905F97C086D186FF
:10298000E286F386DE019B964F70552795E0440F53
:10299000551F9A95E1F7A40FB51F1B968C911B97B5
:1029A00083FD3FC0877380831B969C911B97987112
:1029B00011F488608083238381E082834BA15CA132
:1029C0006DA17EA1448B558B668B778B54964D9170
:1029D0005C91559770E060E0BA01552744275A96FC
:1029E0000D911C915B9730E020E0402B512B622B26
:1029F000732B448F558F668F778F5C968D919D9149
:102A00000D90BC91A02D808F918FA28FB38F81E00C
:102A1000DF91CF911F910F91FF90EF90DF90CF90BA
:102A200008951082128280E0F3CFFC018081811131
:102A30000EC080E2DF011D928A95E9F777836683F5
:102A4000DB0115968C91803121F0803239F080E0E5
:102A5000089580E4808381E08283089580E8FACF3E
:102A60002F923F924F925F927F928F929F92AF925E
:102A7000BF92CF92DF92EF92FF920F931F93CF936B
:102A8000DF93EC014B017A018A8180FFD5C08881F8
:102A900083FF16C0888D998DAA8DBB8D4889598971
:102AA0006A897B89841B950BA60BB70BA70170E085
:102AB00060E0481759076A077B07A0F07C0112C045
:102AC00086FF10C0EE81FF818681978155E0880FD7
:102AD000991F5A95E1F728893989821B930B8E1526
:102AE0009F0560F36701712C1E018CE0280E311CDC
:102AF000412C42E0542EC114D10409F4F3C048899A
:102B000059896A897B89EE81FF818A011170288148
:102B1000DB01CA0139E0B695A795979587953A9557
:102B2000D1F726FF30C0448D558D668D778D480FC7
:102B3000591F6A1F7B1FEE81FF810115110509F0E6
:102B400081C0C11482E0D80608F47CC083A194A19E
:102B5000A5A1B6A1481759076A077B0709F472C0F7
:102B6000C11484E0D80608F094C001E010E094019C
:102B700081A192A10E944609882309F45DC0A12C7D
:102B800082E0B82E75C0738078220115110581F49A
:102B900071100EC0452B462B472B81F527FF29C00E
:102BA000848D958DA68DB78D8C879D87AE87BF87C9
:102BB000EE81FF814C855D856E857F854250510990
:102BC00061097109848104C0440F551F661F771F76
:102BD0008A95D2F780899189A289B389840F951F3C
:102BE000A61FB71FAC01BD01470D511D611D711D11
:102BF000A2CF8C8D9D8DAE8DBF8DD6CF4C855D8542
:102C00006E857F8523FF0CC08A8186FF09C04F5FD8
:102C10005F4F6F4F7F4F4C875D876E877F87C8CF31
:102C20009101CF010E949F0B87FD06C08111C0CF8B
:102C30008881807D09F056C08981826089838FEF09
:102C40009FEF53C0C201801B910B56018C159D054F
:102C500008F45C0120E0CF0180960E94F109009702
:102C600059F3BC01600F711FA501C4010E94CF4838
:102C70008A0C9B1C88899989AA89BB898A0D9B1D0E
:102C8000A11DB11D888B998BAA8BBB8BCA18DB0841
:102C900032CF8601012F1127069530E020E0888190
:102CA00086FD0EC082818719990B092E000CAA0B94
:102CB000BB0B80179107A207B30710F48C019D018D
:102CC000D901C80129E0880F991FAA1FBB1F2A95A7
:102CD000D1F75C019401CF0180960E94CC11811143
:102CE000C7CFAACFC7018C199D09DF91CF911F9142
:102CF0000F91FF90EF90DF90CF90BF90AF909F909B
:102D00008F907F905F904F903F902F900895EF921B
:102D1000FF920F931F93CF93DF931F92CDB7DEB730
:102D20007C01962FF70140895189628973898A0154
:102D30009B0185E036952795179507958A95D1F7DC
:102D40000F7011F091112BC041E050E0BE016F5F98
:102D50007F4FC7010E943015813051F090E080E034
:102D60000F90DF91CF911F910F91FF90EF900895F9
:102D7000F70180899189A289B3894F96A11DB11D60
:102D8000808B918BA28BB38BF701868197818B9679
:102D9000F0E20F9F90011124820F931FE1CF405E5C
:102DA0005F4F6F4F7F4F408B518B628B738BECCF9C
:102DB0008F929F92AF92BF92EF92FF920F931F93C9
:102DC000CF93DF937C018B01C0E0D0E0F8018088D5
:102DD0009188A288B38860E0C8010E948716009796
:102DE00099F1FC012081222379F12E3219F1253E3F
:102DF00009F1338533FD20C0CC2321F00E941A0C49
:102E00008D1322C0B501A40185E07695679557958D
:102E100047958A95D1F72C2FB801C701DF91CF9143
:102E20001F910F91FF90EF90BF90AF909F908F9068
:102E30000C94A114C0E0CACF3F30E1F726FFC6CF03
:102E4000C22FCF71D585C2CF80E0DF91CF911F9186
:102E50000F91FF90EF90BF90AF909F908F9008954B
:102E6000CF93DF93EC01AB0170E060E085E0440FAD
:102E7000551F661F771F8A95D1F7CE010E94280C37
:102E8000882331F060E0CE01DF91CF910C9487165A
:102E900090E080E0DF91CF9108955F926F927F92F2
:102EA0008F929F92AF92BF92CF92DF92EF92FF925A
:102EB0000F931F93CF93DF93CDB7DEB7A0970FB6D5
:102EC000F894DEBF0FBECDBF1092FC04DC01D0969B
:102ED000ED90FC90D197E114F10409F4E8C0198257
:102EE0001A821B82F7018081882309F41AC1938119
:102EF000911170C0807CF1F08FE28093FC041092FD
:102F0000FD0401E010E0C801A0960FB6F894DEBF02
:102F10000FBECDBFDF91CF911F910F91FF90EF902A
:102F2000DF90CF90BF90AF909F908F907F906F90E9
:102F30005F9008954489558966897789868197814C
:102F400020E080960E94F109009709F4EAC0D701B9
:102F50001496ED91FC91EF70FF2725E0EE0FFF1F17
:102F60002A95E1F77F01E80EF91EE114F10409F456
:102F7000D8C0D70100E048E090E02C91983099F457
:102F8000203211F140E18EE2202F30E0B9016F5F75
:102F90007F4F6F3F710508F0C4C00F5F24503B4F57
:102FA000F90180830EC01196822F3FEB320F3A3128
:102FB00030F4F7013485342311F0805EE5CF203200
:102FC00019F79F5F9C30C9F610E0F801E450FB4F01
:102FD000108299CF80859185A285B3859E012F5F50
:102FE0003F4F3901892B8A2B8B2B09F04AC0668110
:102FF0007781C9010E941515882309F492C0CC2459
:10300000C394D12C10E000E0D70113968C91139754
:103010008C15D8F214966D917C916C197D09C301C1
:103020000E9430175C01009709F47BC0FC01838586
:103030008F3009F076C080818F71C81272C09801FC
:1030400024503B4F4901512C652DC5010E94AE050E
:10305000009709F4BACF0F5F1F4F0F3F110508F01B
:1030600060C08F37910510F08FE390E0D4018D930D
:103070004D015394BDE05B12E7CFEFEFCE1ADE0AAD
:10308000C3CF80E2D9011D928A95E9F780E1898357
:1030900081E08B838681978198878F838085918556
:1030A000A285B3858D8F9E8FAF8FB8A3A8CFD29600
:1030B000ED90FC90E114F104B1F1F70184A58823AF
:1030C00081F182E0D82E10E000E0D7019B968C9130
:1030D0008D1508F47ACF40E06D2DC7010E94631072
:1030E0000097F9F0FC012081213CD9F43296D801F7
:1030F000A450BB4F8096219131912115310509F4DF
:1031000064CF0F5F1F4F0F3F110558F42F37310564
:1031100010F02FE330E02D938E179F0761F7D394C3
:10312000D4CF1092FC0410E000E0EDCE2F923F923D
:103130004F925F926F927F928F929F92AF92BF92C7
:10314000CF92DF92EF92FF920F931F93CF93DF9373
:10315000CDB7DEB7A6970FB6F894DEBF0FBECDBFD2
:103160004C016B01FA01DB018C91807DD1F480E090
:10317000A6960FB6F894DEBF0FBECDBFDF91CF91FC
:103180001F910F91FF90EF90DF90CF90BF90AF9085
:103190009F908F907F906F905F904F903F902F9077
:1031A0000895D4018C918111E2CF868197810C968C
:1031B0006DE070E00E945F486AA3818583704424BB
:1031C00043948111460E7F019EA28DA2C6010E94EA
:1031D0005214212C00E0512C10E0F7013A96FCA388
:1031E000EBA3D60150968D909D90AD90BC905397D7
:1031F00060E0C6010E948716FC01892B09F4B7CF55
:103200009081953E09F4A1C0992309F4A9C05414F2
:1032100008F4512C9E3209F4A1C085E0B694A7941D
:10322000979487948A95D1F7540183858F3009F05C
:1032300068C011113BC0092F0F71BAA1B013D1CFD3
:1032400096FFCFCF25841B2F013059F680E2F6017F
:10325000DE01119601900D928A95E1F7F7018081C8
:10326000918193838283F1E0F9A389A1181708F46F
:10327000B8CFB501CE0101960E9430173C01892BD1
:1032800009F46CC0D70114968D909C90312C632D5D
:10329000C3010E94AE05D7011296ED91FC91E8158D
:1032A000F90559F4892B09F49CCF58C001509013AB
:1032B00055C08585821541F251C08038910508F0CE
:1032C0004DC02FE9280F2A3108F480529F012F5F4B
:1032D0003F4FD70113963C932E93129790812FE97D
:1032E000290F2A3108F49052981338C03394BDE066
:1032F0003B12CDCFE9A1EF5FE9A3F1E0AF1AB1082E
:10330000B4CF83FD2BC0112381F0013009F02FCF02
:10331000CF010E941A0C28122ACF212FA501B60135
:103320008DA19EA10E94A11423CF4BE050E06BA180
:103330007CA1CF010E94C248892B09F052CFD7014E
:1033400019968C9180FD4DCFE8CF541438F45394E6
:10335000992309F40CCF953E09F05CCF10E041CFE2
:103360005414A8F304CF2F923F924F925F926F9222
:103370007F928F929F92AF92BF92CF92DF92EF9205
:10338000FF920F931F93CF93DF93CDB7DEB72E97A6
:103390000FB6F894DEBF0FBECDBF9E878D877A87AC
:1033A00069875C874B87DC019E968C919E9780FF96
:1033B00045C186FD04C09C968C9183FF4FC0ED856E
:1033C000FE85F081F983AD85BE851196BC91BA83E7
:1033D000ED85FE85F281FB83AD85BE851396BC919C
:1033E000BC83ED85FE85F481FD83AD85BE85159694
:1033F000BC91BE83ED85FE85F681FF83AD85BE85DC
:103400001796BC91B887ED85FE8520883188428863
:10341000538864887588868897882B853C8540E02A
:1034200050E060E070E080E090E0A980BA80CB805E
:10343000DC80ED80FE800F8118850E949848510144
:103440006201730184010E94AD4841F038F0C1016E
:10345000A981BA818A1B9B0B9C878B878B849C8458
:103460002D843E84B8E12B0E311C8114910409F4A3
:103470006FC1ED85FE85F081F983AD85BE8511961E
:10348000BC91BA83ED85FE85F281FB83AD85BE8557
:103490001396BC91BC83ED85FE85F481FD83AD85DB
:1034A000BE851596BC91BE83ED85FE85F681FF83B2
:1034B000AD85BE851796BC91B887AD85BE859096C3
:1034C000ED91FC91DF01AD5DBD4FCD90DD90ED90B4
:1034D000FC9089819A81AB81BC81C822D922EA22E1
:1034E000FB22260191E05922C114D104E104F10428
:1034F000F9F429813A814B815C816D817E818F81D4
:103500009885A0E00E94B64809F072C0AD85BE85DE
:103510009C968C9186FF65C0E15EFD4F8081918114
:10352000A281B381ED85FE85808F918FA28FB38FAD
:10353000ED85FE8580A191A1FC01E25DFD4FA0819A
:1035400049E0F694E794D794C7944A95D1F7ED856E
:10355000FE85408D518D628D738D425051096109F8
:1035600071090A2E04C0440F551F661F771F0A9465
:10357000D2F74C0D5D1D6E1D7F1DFC01E95EFD4FF8
:103580000081118122813381400F511F621F731FFF
:103590004114510409F05AC08114F2E09F0608F466
:1035A00055C0FC01038114812581368140175107E4
:1035B0006207730709F44AC08114F4E09F0608F01B
:1035C0009AC001E010E029853A85DC0111968D91C1
:1035D0009C910E944609882389F1612C82E0782E13
:1035E0004BC0ED85FE85848D958DA68DB78D9ACFC8
:1035F000AD85BE8558964D915D916D917C915B979F
:103600009E968C919E9786FF0AC04F5F5F4F6F4FCB
:103610007F4FFD01408F518F628F738F89CF910152
:10362000CF010E94AA0D87FD09C0811181CFAD8510
:10363000BE859C968C91807509F08AC0ED85FE85CB
:1036400085A5826085A78FEF9FEF86C020E032E0DE
:103650002419350934012815390508F4390120E009
:103660000E94F109009751F3BC01640D751DA3017F
:1036700089859A850E94CF48E985FA85E60DF71D70
:10368000FA87E987930140E050E060E070E080E075
:1036900090E0AD85BE85AC901196BC9011971296C6
:1036A000CC9012971396DC9013971496EC90149785
:1036B0001596FC90159716960C91169717961C91D7
:1036C00017970E9498482C9311963C931197129645
:1036D0004C93129713965C93139714966C931497CC
:1036E00015967C93159716968C93169717969C9320
:1036F00086189708BACE2401452C55244694712C7F
:10370000612C01E010E020E030E004C0000F111F48
:10371000221F331FAA95D2F70C191D092E093F0944
:10372000401651066206730610F493018201680187
:10373000790129E0CC0CDD1CEE1CFF1C2A95D1F789
:10374000360129853A850E94CC11811195CF76CF1B
:103750008B859C85881999092E960FB6F894DEBF43
:103760000FBECDBFDF91CF911F910F91FF90EF90D2
:10377000DF90CF90BF90AF909F908F907F906F9091
:103780005F904F903F902F9008956F927F928F920D
:103790009F92AF92BF92CF92DF92EF92FF920F93E0
:1037A0001F93CF93DF93CDB7DEB7A0970FB6F894F2
:1037B000DEBF0FBECDBF7C015B016A01FC0184A5A9
:1037C0008823D1F0F70114A616A610E0812FA09649
:1037D0000FB6F894DEBF0FBECDBFDF91CF911F9122
:1037E0000F91FF90EF90DF90CF90BF90AF909F90A0
:1037F0008F907F906F900895FB0184A5807511F3E1
:10380000452B59F000E010E020E030E040E050E0CF
:1038100060E070E0C5010E94190F10E04E01F1E276
:103820008F0E911C6624639481E4782E0FE240E2AF
:1038300050E0BE016F5F7F4FC5010E94B3198097B2
:1038400009F0C0CF898187FD05C0882309F4BACF6C
:1038500010E0EDCF111138C0853849F7F701802FFE
:1038600011928A95E9F78A81F70183A79D81892FB3
:10387000877394FF27C084A7F50180A191A1F70168
:1038800091A380A3F501808D918DA28DB38DF70159
:1038900082A393A3A4A3B5A3F50180819181A28102
:1038A000B3818097A109B109F70186A397A3A0A7C7
:1038B000B1A7F50186A586FB882780F9F70182A7C5
:1038C00011E0B5CF8860D7CF803C09F053C0F70135
:1038D00066A68A8181FD76A68985F701808B8A8517
:1038E000818B8B85828B8C85838B8D85848B8E855C
:1038F000858B8F85868B8889878B8D899E89AF89FB
:10390000B88D848F958FA68FB78F898D80878A8D8C
:1039100081878B8D82878C8D83878D8D84878E8D1B
:1039200085878F8D868788A18787C114D10461F42C
:10393000F70186A581FF4ACF84A5982F917109F0E0
:1039400041CF806284A742CFF60180819181938329
:1039500082832C81868197812817190609F078CFF8
:1039600011E0208531858D819E812817390709F066
:103970006FCF5DCF813C09F06BCFF601248135819B
:10398000BE016D5F7F4FFB0181919191BF01F601F7
:10399000A281B381A217B30759F4892B09F058CF3C
:1039A000F601828193818217930709F040CFC0CF3F
:1039B000AD014F5F5F4F538342834C918F37910529
:1039C00008F046CF5FE9540F5A3108F440525FE9DE
:1039D000580F5A3108F4805284133ACF861697064E
:1039E00091F6DECFCF93DF93EC01FB018CA5811123
:1039F00018C084A58075A9F020812F7130E040E0C7
:103A000050E060E070E080E090E0A0E00E94B64806
:103A100041F450E040E0BF01CE01DF91CF910C9422
:103A2000C51B80E0DF91CF9108959F92AF92BF9226
:103A3000CF92DF92EF92FF920F931F93CF93DF937A
:103A4000EC015B0169017A010E949411F50180A9E2
:103A500091A9892B09F470C0188219821A82D9ABF6
:103A6000C8AB8601A0A8B1A8C114D10409F45CC0F8
:103A70008C2D0531110508F084E1982EF1E0CF1A64
:103A8000D108FF24F394B601C5010E9430170097B6
:103A9000B1F0FC0123852F30E1F4808186FF13C053
:103AA000A60170E060E0E5E0440F551F661F771F38
:103AB000EA95D1F7C5010E94280C81110AC019AA04
:103AC00018AA80E025C0F394F1E0CF1AD1089F1422
:103AD000D0F688818111F3CFF5018081807D79F363
:103AE00080899189A289B3898F719927AA27BB27D9
:103AF000892B8A2B8B2B19F7B501CE010E94D81682
:103B00008823E9F28C819D810817190789F481E0E7
:103B1000DF91CF911F910F91FF90EF90DF90CF90A9
:103B2000BF90AF909F900895C5010E945214D1CFCD
:103B3000CE010E94F80CC3CF82A993A9892B09F466
:103B4000C0CF1CA61DA61EA6DBABCAABA2A8B3A8FD
:103B5000B701A60135E0440F551F661F771F3A9540
:103B6000D1F78A019B0140E050E060E070E0C501C0
:103B70000E94190F8823E1F0B501CE010E94F21CCA
:103B80008823B1F08EA19FA1A8A5B9A525E0B6957F
:103B9000A795979587952A95D1F7C816D906EA066D
:103BA000FB0609F4B4CFCE010E94EC101CA61EA6A1
:103BB0001BAA1AAA86CF8F929F92AF92BF92CF92E2
:103BC000DF92EF92FF920F93CF93DF9380911302D6
:103BD000909114020E94571410928404109283044E
:103BE00081E08093D704C0911302D091140280E049
:103BF00096E00E94941188A999A9892B09F465C0BF
:103C000010920006109201061092020680E096E0E3
:103C1000909331068093300668A979A9FB018081D1
:103C2000807DD1F4109231061092300680911302FB
:103C3000909114020E9457141092D4041092D3044D
:103C4000DF91CF910F91FF90EF90DF90CF90BF90D9
:103C5000AF909F908F90089580899189A289B389B0
:103C60008F719927AA27BB27892B8A2B8B2BD1F6FB
:103C700080E096E00E94D8168823A1F2E09113021A
:103C8000F0911402A0A9B1A91097D9F150968D9086
:103C90009D90AD90BC905397C12CD12C760194018E
:103CA000A501B601C70105E00E947D484901F1E088
:103CB0008F1A910890928404809283041092D70402
:103CC00080E096E00E9494118ECF8AA99BA9892B4F
:103CD00009F4ACCF10922C0610922D0610922E06ED
:103CE00080E096E090933306809332066AA97BA920
:103CF0000E94F21C8111C2CF10923306109232063C
:103D000095CF02A8F3A9E02D309749F080809180EB
:103D1000A280B380C480D580E680F780C0CF812C9C
:103D2000912CA12CB12CC12CD12CE12CF12CB7CF92
:103D30004F925F926F927F928F929F92AF92BF92BB
:103D4000CF92DF92EF92FF920F931F93CF93DF9367
:103D5000CDB7DEB7C454D1090FB6F894DEBF0FBE9D
:103D6000CDBF80911302909114020E949411E090B3
:103D7000F904F090FA04E114F10409F43EC0009152
:103D8000130210911402C8010E949411F701E05A25
:103D9000FD4F0190F081E02D309709F447C1D80123
:103DA0001C9211961C92119712961C921297D19602
:103DB0001C930E93D09701151105D1F019821A8228
:103DC0001B828C91811114C0E55DFD4F8081807D47
:103DD00079F0A9E1B2E06D018D918F32E1F3668156
:103DE0007781811122C0C8010E941515811105C07B
:103DF000D801D1961C921E92D097CC5BDF4F0FB6A4
:103E0000F894DEBF0FBECDBFDF91CF911F910F9110
:103E1000FF90EF90DF90CF90BF90AF909F908F90EA
:103E20007F906F905F904F900895FE0131965F01F3
:103E3000CF010E9415158823D9F280E3882E912C9A
:103E40008C0E9D1EF5E18F0E911C90E2792E76016D
:103E500097012F5F3F4FD7018C91803219F1F9AA5A
:103E6000E8AA1FAA1EAAC701FC0161906F01662083
:103E7000D9F0FFE26F16C1F067FCBACF862D0E9421
:103E8000B5118111B5CFC6018E199F092EE26216B8
:103E900039F030E2631621F09FAB8EABDDAACCAADD
:103EA000C601E2CF7901D4CF2EA93FA92150310913
:103EB0002F3F310508F09CCF6C01DC012C9101965D
:103EC0002032D1F32F32C1F32CA93DA9FE01FA967D
:103ED000CF017192E815F905E1F771E0F701408132
:103EE0004E3209F470E0F7014FEFE41AF40A408112
:103EF0004E32C9F3A90141505109E417F50720F4E6
:103F0000DA016C916E32B9F7F12C67E0662EA0E011
:103F1000E12CB8E05B2EE217F30708F049C060819E
:103F20006E3251F44E175F0779F46AE0662EA8E00E
:103F3000B0E15B2E3196EFCF6232A1F06C3791F099
:103F4000B5EAB60FB33070F0B6EDB60FB63010F478
:103F50006D3241F4B6ECB60FB63020F0BFEDB60FBF
:103F6000BE3530F0607C603809F02FC170E0E2CFE0
:103F70006A1648F4BAE06B16D1F04E175F07B8F036
:103F8000FA013197F3CFBFE9B60FBA3108F022C179
:103F90006052F528442443944A0EA80FB92FB11D4E
:103FA0006C9366E0641508F048AEA42DC3CF70E0B2
:103FB0002AAD203209F41CCF772309F1EF2011F04C
:103FC00082E0F82EF9AEF6018081AE01405D5F4FD0
:103FD000B501882339F1C8010E949618882309F495
:103FE00007CFA016B10639F080E2F801D5010190A3
:103FF0000D928A95E1F7C8010E94F80C28CF21E0C4
:1040000029AF28AD30E0820F931F4EE7DC014C93BF
:10401000EBE3F0E0EC0FFD1F2E0F3F1F81E3D90112
:104020008C93D1CFC8010E949618E0CEF701EE59CB
:10403000FD4F80819181009709F4DFCEF80114A62D
:1040400015A616A613AB02AB0115110509F4B7C0EE
:104050001DA61EA61FA624A52111B1C0FC01E55A6C
:10406000FD4F2081207509F4AAC0E9E1F2E05F016B
:1040700021912F32E1F3815D9D4FDC0190968D916E
:104080009C91211112C02FE2F80111922A95E9F7B3
:1040900020E4D8019C962C939C9791969C938E93A8
:1040A000909781E09E968C93A8CEFE0131966F0189
:1040B0002FE2DF011D922A95E9F720E42DA79AA3AC
:1040C00089A381E08FA7750197012F5F3F4FF7010B
:1040D00080818032F1F0F9AAE8AAFDAAECAA5F017A
:1040E000D5017D904D017720E1F0BFE27B1699F07C
:1040F000872D0E94B511811162C077FC60C0EEE28D
:104100007E1629F0F0E27F1611F09DAA8CAAF40128
:10411000E6CF7901D9CF5F0181918032E1F38F320F
:10412000D1F3FBAAEAAA8CA99DA950E040E0EAA934
:10413000FBA9E817F907B1F09F012F5F3F4F3BAB99
:104140002AAB30812FE9230F2A3108F4305240FB8B
:104150005795479557F9430F511D40FB5795479584
:1041600057F9E5CF8E199F099FAB8EAB59AF48AF7A
:1041700001978F3F910518F5D5018C91AE01405DF7
:104180005F4FB6018823B1F0C8010E94C51B882388
:10419000B1F0C016D10639F08FE2F801D6010190D6
:1041A0000D928A95E1F7C8010E94EC10F80114A65F
:1041B00016A689CFC8010E94C51B81111ECED80149
:1041C000D3961C921E92D29718CE70E06FE56A16B5
:1041D00008F4D0CEBFEBB60FBA3108F0DBCEE5283D
:1041E000D9CE8F929F92AF92BF92CF92DF92EF92F1
:1041F000FF920F931F93CF93C82F80913006909119
:1042000031060097F1F00E94280C81110DC080E06A
:10421000CF911F910F91FF90EF90DF90CF90BF90C3
:10422000AF909F908F9008954C2F50E08091300672
:10423000909131060097A1F066EB74E00E94301572
:10424000E7CF8091320690913306009701F38A01FF
:104250009B0140E050E060E070E00E94190FD5CF74
:104260008091320690913306009729F066EB74E056
:104270000E94B319CDCF8FEFCBCFCF92DF92EF92C9
:10428000FF92C090CD04D090CE04E090CF04F09087
:10429000D004B701A60184E00E94F120843071F5BA
:1042A00084E0C80ED11CE11CF11CC092CD04D09258
:1042B000CE04E092CF04F092D0048091B8049091A3
:1042C000B904B0E0A0E0DC01992788274091B6044A
:1042D0005091B70470E060E0842B952BA62BB72B90
:1042E0008093680490936904A0936A04B0936B046C
:1042F00081E0FF90EF90DF90CF90089580E0F9CFBC
:10430000CF92DF92EF92FF92C090CD04D090CE0476
:10431000E090CF04F090D004B701A60183E00E94A2
:10432000F120833041F583E0C80ED11CE11CF11C63
:10433000C092CD04D092CE04E092CF04F092D0048B
:104340008091B7049091B804B0E0A0E0BA2FA92FF3
:10435000982F88272091B604822B8093680490932D
:104360006904A0936A04B0936B0481E0FF90EF901E
:10437000DF90CF90089580E0F9CFCF92DF92EF9257
:10438000FF92C090CD04D090CE04E090CF04F09086
:10439000D004B701A60182E00E94F1208230D9F456
:1043A00082E0C80ED11CE11CF11CC092CD04D09259
:1043B000CE04E092CF04F092D0048091B6049091A4
:1043C000B704909369048093680481E0FF90EF90B4
:1043D000DF90CF90089580E0F9CFCF92DF92EF92F7
:1043E000FF92C090CD04D090CE04E090CF04F09026
:1043F000D004B701A60181E00E94F1208130B1F420
:104400009FEFC91AD90AE90AF90AC092CD04D092DD
:10441000CE04E092CF04F092D0049091B604909331
:104420006804FF90EF90DF90CF90089580E0F9CF7F
:104430008091D104811146C00E94ED21882309F4A6
:1044400043C08091680480937C0480917D049091A6
:104450007E04A0917F04B09180040197A109B10965
:1044600080937D0490937E04A0937F04B093800496
:104470008F3F9F4FAF4FBF4F01F58091C0048931EF
:10448000E1F48091CD049091CE04A091CF04B0913D
:10449000D0040197A109B1098093CD049093CE0473
:1044A000A093CF04B093D00488EE93E09093670478
:1044B0008093660480E88093C00489E08093D104EF
:1044C000109277040C94041281E08093C40488EE67
:1044D00093E0909367048093660480E88093C0041F
:1044E00008958091D104811137C00E94ED21882365
:1044F00009F44AC08091680480937C0480917D0413
:1045000090917E04A0917F04B09180040197A1094D
:10451000B10980937D0490937E04A0937F04B093AF
:10452000800410926504892B8A2B8B2B81F481E007
:1045300080937B048091630490916404892B21F41F
:1045400087E08093120203C085E08093C9048BE06A
:104550008093D104109277048091D104823039F491
:1045600080916204811103C081E08093D104809125
:10457000D10440916004509161048B3039F4509320
:104580000B0240930A0213C086E0DBCF8230E1F5D4
:1045900090916204917020916504921791F120919D
:1045A0005E0490915F0420930A0290930B02909115
:1045B00077049F5F909377042091110260910A0223
:1045C00070910B026417750779F592133EC09EEF48
:1045D000980F993038F420917C0430E03595279578
:1045E00020937C0481508093D104109277049091A1
:1045F0007B04992351F1811128C086E08093120237
:104600000895242F952FCFCF813049F420915E0457
:1046100030915F0430930B0220930A02C8CF90912F
:104620007C0490FDF3CFABCF30E0220F331F921705
:10463000130659F49EEF980F9930A0F690916504F7
:1046400021E0922790936504C6CF08959091D104FC
:1046500020910C0230910D02809177049B3009F07B
:1046600081C02136394008F0A5C0882309F488C0EC
:10467000813031F420EA31E030930B0220930A02BA
:104680008F5F8093770420910A0230910B02203DC6
:10469000310521F02C33310509F094C02DEF290F9D
:1046A0002830A0F4823091F48091650421E08227C3
:1046B0008093650420917C0430E035952795209304
:1046C0007C0491509093D104109277048091D1048E
:1046D000813041F480917704863021F41092D10426
:1046E000109277048091D104823011F08B3049F41C
:1046F00090917704923029F481508093D1041092E4
:1047000077048091D104811172C080917B04882349
:1047100009F46DC08FEF90E0A0E0B0E08093C50495
:104720009093C604A093C704B093C8040E94ED21DF
:10473000882309F459C08091CD049091CE04A091B2
:10474000CF04B091D0040197A109B1098093CD04A1
:104750009093CE04A093CF04B093D00485E08093CF
:10476000C90408959230D9F42136394060F4882381
:1047700039F0813009F084CF2091650421117ACF7E
:1047800020ED30E079CF882339F0813009F078CFFF
:1047900020916504211113C02CE330E06DCF9130DE
:1047A00021F42136394060F3F7CF40917C0440FF7B
:1047B00058CFF7CF882381F3813009F061CF26ED00
:1047C00031E05ACF823009F09CCF8DEF890F8830CD
:1047D00038F420917C0430E03595279520937C04B3
:1047E00091509093D1048BCF82E080931202089570
:1047F0000E94ED212091B504882309F495C0809191
:10480000680480937C0480917D0490917E04A09143
:104810007F04B0918004243109F053C02FEF20931E
:104820007C0425E12093B5044091CD045091CE0441
:104830006091CF047091D004415051096109710910
:104840004093CD045093CE046093CF047093D00472
:104850000296A11DB11D80937D0490937E04A093C8
:104860007F04B09380048091650490917C04892733
:104870008093650480917D0490917E04A0917F04D3
:10488000B0918004892B8A2B8B2B09F069C0109280
:1048900077048091CD049091CE04A091CF04B09183
:1048A000D0040197A109B1098093CD049093CE045F
:1048B000A093CF04B093D00485E08093C90480E036
:1048C0000895AC01BD01415051096109710940933E
:1048D0007D0450937E0460937F0470938004209144
:1048E000C004283F09F0BFCF2091E2022111BBCFC5
:1048F0002091100220937C0421E02093E202409159
:10490000CD045091CE046091CF047091D0044150F9
:104910005109610971094093CD045093CE0460930D
:10492000CF047093D00497CF253159F58091650459
:1049300080937C0480917D0490917E04A0917F04FB
:10494000B09180040196A11DB11D80937D049093C8
:104950007E04A0937F04B093800486E18093B50425
:1049600080917D0490917E04A0917F04B091800499
:104970000197A105B10549F088E08093D10481E059
:10498000089581E08093C40497CF80910502F5CF0C
:104990000E94F823811105C010920B0210920A02A6
:1049A00008958091D1048150990B982F8827905CAD
:1049B00020917C04820F911D90930B0280930A0238
:1049C00008958091D104811106C00E94F8238823A4
:1049D00019F11092770480917C0420915E0430914B
:1049E0005F0487FD04C0209160043091610430931E
:1049F0000B0220930A02909177049F5F90937704B3
:104A0000923051F4880F80937C048091D1048150BE
:104A10008093D1041092770408958091C904833063
:104A200081F128F4813049F0823009F10895843011
:104A300091F1853009F4AAC0089580915C049091A9
:104A40005D049C012150310930935D0420935C0486
:104A5000892B21F482E08093C904089580915A043F
:104A600090915B0490930B0280930A0208958091C9
:104A7000ED029091EE0290930B0280930A0283E084
:104A8000EACF8091EB029091EC0290930B0280931D
:104A90000A0284E0E0CF8091C0048B3F09F074C02B
:104AA0002091B504243108F06FC08091D1048111A8
:104AB0003CC040916504233139F440937C0484E187
:104AC0008093B50485E0C7CF31E0320F3093B50451
:104AD000832F90E0FC01EC51FB4FE491E0937C04C8
:104AE00022502A3008F047C003972CEF34E0F90138
:104AF00001900020E9F79F012D5F34408217930752
:104B0000C0F584509B4FFC01808190EE980F903649
:104B100070F580937C0480917C04842780936504E5
:104B200088E08093D1041092770480917C042091D6
:104B30005E0430915F0487FD04C0209160043091D1
:104B4000610430930B0220930A02909177049F5FD7
:104B5000909377049230A1F5880F80937C04809124
:104B6000D10481508093D1041092770408958FE38B
:104B7000D0CF80E2CECF8091EF023D3051F23E3077
:104B800051F68091F002C5CF0C94E1242091C0042D
:104B900080916304909164042E3F99F0283F89F03E
:104BA0002B3F79F0909367048093660480E88093AC
:104BB000C0048091C404882319F08FEF8093C0044F
:104BC0000895906890930B0280930A021092C90492
:104BD000F0CF8F929F92AF92BF92CF92DF92EF92DF
:104BE000FF920F931F93CF93DF938C01B62E1092F9
:104BF000FD081092FC0810929C068FEF9FEFDC01DD
:104C000080939F069093A006A093A106B093A2065E
:104C10001092C9081092F7081092F8081092F9083B
:104C20008CE996E09093FF088093FE081093C808E3
:104C30000093C70810939E0600939D06662309F40F
:104C4000DDC020E040E050E0BA010E94F109009789
:104C500009F4D8C0FC01E254FE4F2481222309F458
:104C6000D1C020812F7709F0CDC08A539E4FDC013F
:104C7000CD90DD90ED90FC9020E0B701A6018CE98D
:104C800096E00E94F109EC01009709F4BBC045E0F1
:104C900050E06BE172E003960E94E848892B09F02E
:104CA000B1C0FE01E459FF4F8081893009F0AAC0EC
:104CB0000CE916E07C9780819181A281B3818C0DF3
:104CC0009D1DAE1DBF1D8093AB089093AC08A093B3
:104CD000AD08B093AE08349680819181A281B381F2
:104CE0008093AF089093B008A093B108B093B20836
:104CF000349680819181A281B3818C0D9D1DAE1D62
:104D0000BF1D8093B3089093B408A093B508B093E7
:104D1000B608349680819181A281B3818093B708CF
:104D20009093B808A093B908B093BA0834968081DC
:104D30009181A281B3818093BB089093BC08A0931A
:104D4000BD08B093BE08C359DF4F28812093CA081D
:104D5000275F81E090E0A0E0B0E004C0880F991FD9
:104D6000AA1FBB1F2A95D2F78093C3089093C4084B
:104D7000A093C508B093C6080197A109B109809313
:104D8000BF089093C008A093C108B093C2081092C6
:104D9000A7081092A8081092A9081092AA0840E04B
:104DA00050E0BA01C8010E943B0AC0E4C093C908A0
:104DB0008BEC98E00E94EC10EBECF8E08FE2DF0166
:104DC0001D928A95E9F7C093F7081093EC080093B9
:104DD000EB0881E08093F9088091F7049091F80442
:104DE000892B21F41093F8040093F7048CE996E0E2
:104DF0009093FA048093F90481E01EC1C12CD12C58
:104E000076013ACF1092FF081092FE081092A10688
:104E10001092BC068FEF9FEFDC018093BF0690934A
:104E2000C006A093C106B093C2061092C7081092A4
:104E3000C8081092C9088CE996E09093FD08809309
:104E4000FC0810939D0600939C0681E090E0A0E092
:104E5000B0E08093A4069093A506A093A606B09315
:104E6000A7061093BE060093BD06BB2009F443C0FD
:104E700020E040E050E0BA018CEB96E00E94F1099E
:104E8000009709F4D4C0FC01E254FE4F2481222390
:104E900009F4CDC020812F7709F0C9C08A539E4FF5
:104EA000FC01C080D180E280F38020E0B701A60140
:104EB0008CEB96E00E94F109FC01892B09F4B7C044
:104EC0008089823009F0B3C0838594858115924032
:104ED00009F0ADC0958590939E068FEF890F809362
:104EE0009F06C0E081E0981751F0CF5FC93009F408
:104EF000E9C0880FF8CFC12CD12C7601D6CFC09352
:104F0000A00686899789B0E0A0E08093A8069093D8
:104F1000A906A093AA06B093AB06892B8A2B8B2BEC
:104F200061F484A195A1A6A1B7A18093A80690934E
:104F3000A906A093AA06B093AB068685978597012C
:104F40008601080F191F211D311D0093B006109313
:104F5000B1062093B2063093B3068189928990936B
:104F6000A3068093A2064091A8065091A9066091DD
:104F7000AA067091AB064A015B01880C991CAA1C19
:104F8000BB1C800E911EA21EB31E8092B80690928A
:104F9000B906A092BA06B092BB069C01B5E0220FFA
:104FA000331FBA95E1F721503E4F232F3327269523
:104FB000820E931EA11CB11C8092AC069092AD068D
:104FC000A092AE06B092AF060389148930E020E0CB
:104FD000011511052105310521F400A111A122A11E
:104FE00033A1C818D908EA08FB08C00ED11EE21E7A
:104FF000F31E04C0F694E794D794C794CA95D2F7E9
:10500000D701C6010196A11DB11D8093B4069093EE
:10501000B506A093B606B093B70685EFC8168FE025
:10502000D806E104F104A8F48CE08093A106109264
:10503000FD081092FC0880E0DF91CF911F910F9145
:10504000FF90EF90DF90CF90BF90AF909F908F90A8
:10505000089580E1A5EFCA16AFEFDA06E104F10486
:1050600068F084A595A5A6A5B7A58093B8069093EA
:10507000B906A093BA06B093BB0680E28093A1065E
:105080004093C3065093C4066093C5067093C6064A
:1050900087EC98E00E94F80C6CE976E087EC98E0E9
:1050A0000E941515882319F28091F5049091F60459
:1050B000892B09F09BCE8CE996E09093F6048093BF
:1050C000F50494CE88E08093A006B1CF1F920F9292
:1050D0000FB60F9211242F933F938F939F93AF930B
:1050E000BF9380916D0490916E04A0916F04B09174
:1050F000700430916C0423E0230F2D3758F501968E
:10510000A11DB11D20936C0480936D0490936E04D7
:10511000A0936F04B0937004809171049091720415
:10512000A0917304B09174040196A11DB11D8093E8
:10513000710490937204A0937304B0937404BF91AC
:10514000AF919F918F913F912F910F900FBE0F9034
:105150001F90189526E8230F0296A11DB11DD2CFEE
:1051600071E0509A51980000000000000E94C73B77
:1051700050980E94C73BA894000000000000489B84
:105180000E94C13BD2F0889449990894771F48F750
:10519000509A803019F051980C94CF28519A000001
:1051A000000000000E94C73B5098A8940000000037
:1051B000489B0E94C13B0E94C73B00000000509AE0
:1051C000872F9927089580E208950894881F0C94EA
:1051D000EA28880FF1F0509A00000000000020F447
:1051E000000051980C94F728519A0C94F7280E94CB
:1051F000C73B5098A894000000000000489B0E9404
:10520000C13B1AF488270C941C290E94C73B0C94BC
:10521000E928509A0000000051980E94C73B992746
:1052200088275098A8940000489B0E94C13B52F3E5
:10523000499B81E00E94C73B00000000509A0895FE
:1052400081E00895509A519A0E94C73B50980E945D
:10525000C73B489B0E94C13B51980E94C73B0895A1
:105260008F93F1E0E4EF8F918F93489B0E94C13BB5
:10527000519A0E94C73B0E94E528882331F40E947E
:105280002229319711F00C94332999270F90089512
:105290000895509A0E94C73B51980E94C73B50986E
:1052A0000E94C73B489B0E94C13B519A0E94C73B4A
:1052B0000E94E528089581E00895489B0E94C13B23
:1052C000519A0E94C73B0E94E528089581E0089505
:1052D000CF93DF93C82FD62F88E70E945D2980E8FF
:1052E0000E94E52880EB8D0F0E94E52880E80E944F
:1052F000E5288C2F8170880F880F880F8E5F0E94A1
:10530000E52880E80E94E5288C2F8695805F0E9422
:10531000E528DF91CF910C9422290F931F93CF930F
:10532000DF93C82F88E70E945D2980E40E94E5286A
:10533000C052DD0B83E0CC0FDD1F8A95E1F7C2532D
:10534000DE4F10E000E0FE01E00FF11F84910E94AB
:10535000E5280F5F1F4F08301105A9F7DF91CF91A6
:105360001F910F910C9422290F931F93CF938C01BF
:1053700060E080E00E946829C0E0F801EC0FF11DB8
:10538000C7FDFA958491882321F00E948D29CF5F73
:10539000F4CFCF911F910F9108950F931F93CF9347
:1053A000DF9363E083E00E946829C091C004EC2F82
:1053B000F0E084E0F595E7958A95E1F7E65CFA4F31
:1053C00084910E948D29CF70EC2FF0E0E65CFA4FBB
:1053D00084910E948D2963E08AE00E946829C0912F
:1053E000D804D091D9042AE030E0CE01B9010E945E
:1053F0005F488C01892B39F4CB01B9010E945F48C9
:10540000805D0E948D2963E08BE00E94682980E323
:10541000800F0E948D292196D093D904C093D8047F
:10542000DF91CF911F910F9108950F931F93CF9309
:10543000DF938C0180E00E946829E80110E100E020
:10544000011104C08881811102C001E080E20E9444
:105450008D29115021961111F3CFDF91CF911F911A
:105460000F910895CF92DF92EF92FF920F931F93C7
:10547000CF93DF93CDB7DEB761970FB6F894DEBF59
:105480000FBECDBFF82E0E9435070091FC0510918C
:10549000FD052091FE053091FF0560177107820719
:1054A000930708F45CC01091FB0480E0FF2019F022
:1054B0008EE3898381E0E1E0F0E0EC0FFD1FE80F6F
:1054C000F11D912F6CEF74E0811B292F30E0DB017F
:1054D0000D900020E9F7AD014D5F544024173507CA
:1054E00008F04CC024503B4FD9012C9120839F5F82
:1054F0003196292F280F203140F3198A61E070E09E
:10550000CE0101960E94152A0E9435073AEFC32E5C
:10551000D12CE12CF12C111106C028EBC22E2BE06E
:10552000D22EE12CF12CC60ED71EE81EF91EC09219
:10553000FC05D092FD05E092FE05F092FF056CEFB0
:1055400074E0FB0101900020E9F7BF016D5F74403A
:10555000812F90E001960E945F488093FB04619642
:105560000FB6F894DEBF0FBECDBFDF91CF911F9174
:105570000F91FF90EF90DF90CF9008951082B7CFFA
:105580008F929F92AF92BF92CF92DF92EF92FF9253
:10559000CF93DF9380E096E00E9494118091D7042E
:1055A0008823A1F168E275E08CEF94E00E948F47B8
:1055B0008091F304882309F4A1C08091DA04882340
:1055C00009F495C06EE874E08BED94E00E94E14828
:1055D00070E060E08BED94E00E94152A8091F30466
:1055E0001092FB041092FC051092FD051092FE052E
:1055F0001092FF05DF91CF91FF90EF90DF90CF9059
:10560000BF90AF909F908F900C94322A2091D3043A
:105610003091D40450E040E0609113027091140284
:1056200080E096E00E94151D811111C08091D30485
:105630009091D404209183043091840482179307BD
:1056400030F401969093D4048093D304DFCF80E0AC
:1056500096E00E944D174091300650913106411559
:10566000510531F1FA01808D918DA28DB38D4C01E0
:105670005D018092EF029092F002A092F102B0924E
:10568000F2024115510531F1FA018081807D8111CD
:105690002AC061E272E08CEF94E00E94D848892B26
:1056A00011F11092F30480E096E00E94941180CFF3
:1056B00020913206309133062115310531F0F90180
:1056C00080889188A288B388D4CF812C912CA12C7A
:1056D000B12CCFCFE0913206F09133063097C9F26A
:1056E00084A58075D4CF81E08093F304DCCF6AE198
:1056F00075E08BED94E00E948F476ACF6091EF02D6
:105700007091F0028091F1029091F2022AE04BED4B
:1057100054E00E94964763E175E08BED94E00E94AF
:10572000844756CF80E18093810081E08093CC0450
:105730001092F40480E096E00E9494110E94C02A26
:105740001092CD041092CE041092CF041092D00487
:105750001092B5041092C1040C94B7130F931F93C9
:10576000CF938C0180E00E946829C0E0F801EC0F23
:10577000F11DC7FDFA958491882321F00E948D299F
:10578000CF5FF4CFC0312CF480E20E948D29CF5F2F
:10579000F9CFCF911F910F9108950E94922B809184
:1057A000F404813041F470E060E080E395E00E9411
:1057B000AE2B1092F404089570E060E08EEC94E05B
:1057C0000E94AE2B6CE271E080E090E00E94030743
:1057D0000C94922BCF92DF92EF92FF92CF93909105
:1057E000C904963039F4CF91FF90EF90DF90CF90BD
:1057F0000C94C82410920B0210920A02E09112023B
:10580000E83090F4F0E08827E75FF34D8F4F0C9479
:105810007348112C1A2CFC2D0C2E3D2C5C2C7F2C4B
:10582000202D81E080931202CF91FF90EF90DF90C6
:10583000CF90089540E050E0BA018AE00E94F12044
:105840008A30B9F447E050E06DED74E086EB94E007
:105850000E946447892B69F48AE090E0A0E0B0E000
:105860008093CD049093CE04A093CF04B093D00442
:1058700002C00E94DC2B82E0D5CF40E050E0BA01AC
:1058800088E00E94F1208830A1F448E050E067EE03
:1058900074E086EB94E00E946447892B51F41092E7
:1058A000CD041092CE041092CF041092D00483E065
:1058B000B9CF0E94DC2BFBCF40E050E0BA0189E079
:1058C0000E94F1208930B9F449E050E068EF74E0BB
:1058D00086EB94E00E946447892B69F48CE090E0A9
:1058E000A0E0B0E08093CD049093CE04A093CF04C9
:1058F000B093D00402C00E94DC2B86E093CF0E94BC
:10590000BD21882309F497C0E0906804F0906904F1
:10591000F092DE02E092DD020E943D21882309F42C
:105920008AC08091680490916904A0916A04B09142
:105930006B0480937D0490937E04A0937F04B093C6
:1059400080041092620424E0E21621E0F20609F0DD
:1059500048C00397A109B10980937D0490937E0408
:10596000A0937F04B09380048091CD049091CE04E5
:10597000A091CF04B091D0040196A11DB11D8093D8
:10598000CD049093CE04A093CF04B093D0040E9492
:10599000ED21882399F0809168048F3431F480914F
:1059A0008604882341F082E007C0853439F4809171
:1059B00086048823C1F381E0809362048091CD0442
:1059C0009091CE04A091CF04B091D0040196A11D76
:1059D000B11D8093CD049093CE04A093CF04B093D7
:1059E000D00480910C0290910D02803B9440D1F440
:1059F00080EA91E0909361048093600480ED90E0F0
:105A000090935F0480935E0410927B041092D10403
:105A10001092770487E0809312021092C9041092CA
:105A2000DC0202CF8CE491E09093610480936004E7
:105A300086EA90E0E5CF83E0809312028FEF97C46F
:105A40002091DD023091DE02203181E0380709F437
:105A50003FC0E0F4211581E0380799F1243031404E
:105A600081F18091CD049091CE04A091CF04B091AA
:105A7000D00440917D0450917E0460917F04709128
:105A80008004840F951FA61FB71F2CCF223141E041
:105A9000340709F440C008F456C02731314009F7F3
:105AA0000E94BD21882309F4BFCE809168049091A3
:105AB00069048C32914009F09DC088E08093110206
:105AC0001CCFCF91FF90EF90DF90CF900C9471227C
:105AD000911189C00E94BD218823D9F020910C0228
